S0140000636F6D626F5F73656E736F722E7372656307
S31500000000E00A0020D51E00003D1D0000D11E0000A4
S31500000010D11E0000D11E0000D11E0000D11E00001E
S31500000020000000000000000000000000D11E0000DB
S31500000030D11E000000000000D11E0000D11E0000ED
S3150000004091170000DD18000000000000000000000D
S31500000050000000000000000000000000000000009A
S31500000060000000000000000000000000000000008A
S31500000070000000000000000000000000000000007A
S31500000080000000000000000000000000000000006A
S31500000090000000000000000000000000000000005A
S315000000A0000000000000000000000000000000004A
S315000000B0000000000000000000000000000000003A
S315000000C0000000000000000000000000000000002A
S315000000D0000000000000000000000000000000001A
S315000000E0000000000000000000000000000000000A
S315000000F000000000000000000000000000000000FA
S3150000010000000000000000000000000000000000E9
S3150000011000000000000000000000000000000000D9
S3150000012000000000000000000000000000000000C9
S3150000013000000000000000000000000000000000B9
S3150000014000000000000000000000000000000000A9
S315000001500000000000000000000000000000000099
S315000001600000000000000000000000000000000089
S315000001700000000000000000000000000000000079
S315000001800000000000000000000000000000000069
S315000001900000000000000000000000000000000059
S315000001A00000000000000000000000000000000049
S315000001B00000000000000000000000000000000039
S315000001C0FFFFFFFFFFFFFFFFFFFFFFFFFFFFFFFF39
S315000001D0FFFFFFFFFFFFFFFFFFFFFFFFFFFFFFFF29
S315000001E0FFFFFFFFFFFFFFFFFFFFFFFFFFFFFFFF19
S315000001F0FFFFFFFFFFFFFFFFFFFFFFFFFFFFFFFF09
S315000002000348044B834202D0034B03B1184770479F
S31500000210440100204401002000000000064B07496D
S31500000220C91A891048BF0131491003D0044B0BB1DC
S3150000023001481847704700BF4401002044010020D0
S315000002400000000010B5064C237843B9FFF7D8FF2D
S31500000250044B13B10448AFF300800123237010BD93
S315000002606001002000000000705A000008B5054B30
S315000002701BB105490548AFF30080BDE80840FFF70C
S31500000280CDBF00BF0000000064010020705A0000CE
S3150000029008B5074B9B68D3E90112186812689047A6
S315000002A000B908BD1421034B034A044801F012FDAE
S315000002B00C00002050500000305100006850000033
S315000002C00379042B04D001200249034A08701370F5
S315000002D0704700BFDA0100200800002008B5074B70
S315000002E0D3E9011218681268904700B908BD602169
S315000002F0034B044A044801F0EDFC00BFF85100002E
S315000003005050000010510000685000002DE9F043E5
S315000003101D4B81461E689D6883B030466B689847C2
S3150000032060BB1A4C2378002BFCD00027DFF87080C6
S31500000330277069463046EB689847C8B92378002B82
S31500000340FCD0277098F80030012BF2D04A46694657
S3150000035030462B69984740B1B0F5403FE9D0D621E9
S315000003600B4B0C4A0C4801F0B5FC03B0BDE8F0831A
S31500000370B1210A4B074A084801F0ACFC8421074B1F
S31500000380044A054801F0A6FCF8510000DA010020F5
S315000003907C500000D850000068500000505000000B
S315000003A0080000200379044A052B137002D00122AD
S315000003B0024B1A70704700BFD8010020D9010020F7
S315000003C008B5074BD3E9011218681268904700B9BF
S315000003D008BD4FF49271034B034A044801F07AFCBE
S315000003E08C51000050500000B850000068500000CA
S315000003F02DE9F0472DED028B0022574B574C1E6816
S315000004009D68824688B030466B68B0EE408AF0EE52
S31500000410608A22709847002840F08F802378002B4E
S31500000420FCD000274FF47A7140F6B830277001F0FF
S3150000043059FCDFF83C81DFF83C913046EB68984781
S31500000440002873D12378002BFCD03046EB6B277045
S315000004509847002863D12378002BFCD0277098F8A2
S315000004600030032B44D098F80030042B40D0694666
S3150000047030462B699847484534D0002848D1237820
S31500000480002BFCD0002330462370EB6B98470028E6
S315000004905AD1237803F0FF07002BFAD000232370EC
S315000004A098F80030032B24D098F80030042B20D085
S315000004B0F0EE680AB0EE480A3046AB6B9847044641
S315000004C0F8B9524669463046AB69984798B1A0F5E7
S315000004D04033012B0ED940F2BB11214B214A224851
S315000004E001F0F8FB4FF47A71322001F0FBFBA4E730
S315000004F0FEE7FEE72746384608B0BDEC028BBDE8AE
S31500000500F08740F2A911194B164A174801F0E2FB91
S315000005104FF4C471154B134A134801F0DBFB40F24C
S315000005206711124B0F4A104801F0D4FB40F25B11E1
S315000005300E4B0C4A0C4801F0CDFB4FF49F710B4B50
S31500000540084A094801F0C6FB4FF4CA71074B054A31
S31500000550054801F0BFFB00BF8C510000D901002007
S315000005607C5000008450000068500000505000008D
S31500000570D80100200200030080B5FFF789FEFFF7CF
S315000005801FFFFFF7ABFE0A4F0A4E0B4D0B4CD7ED84
S31500000590000A96ED000A2846FFF72AFF2046FFF7D5
S315000005A0B5FE4FF47A71084601F09CFBEFE700BFF9
S315000005B00000002004000020840100207C010020AF
S315000005C0022800D070470249024801F093BA00BFE2
S315000005D060520000DC01002008B5FFF7CDFF0020C7
S315000005E008BD00BF062070470620704706207047EA
S315000005F00620704730B5C06D85B0436A056A019123
S31500000600816A039302912B46D0E90610144601AA8B
S3150000061002F022F9031E1BDB2946A44605F134002D
S3150000062051F804EB81424CF804EBF9D1686B012BCD
S31500000630296C6A6CD5F848C0EB6C6063064818BF35
S315000006400020C4F84CC06164A264236505B030BDC7
S31500000650012005B030BD00BF0100030008B5064902
S31500000660C36D064AD86959629A6201F0DFFC003808
S3150000067018BF012008BD00BF0000A041000048428D
S3150000068006207047062070470620704706207047F0
S3150000069006207047062070470620704706207047E0
S315000006A0062070470620704706207047C36DDB683A
S315000006B05B691847C36DDB689B691847C36DDB68C8
S315000006C0DB691847C36DDB681B6A1847C36DDB68B7
S315000006D05B6A1847C36DDB689B6A1847C36DDB68A6
S315000006E0DB6A1847C36DDB681B6B1847C36DDB6895
S315000006F05B6B18470346DB6D002083ED090AC3EDEB
S315000007000A0A70474379002B4AD04FF0000C9FED40
S31500000710254ADFED254A9FED255ADFED255A70B5AE
S3150000072013790CF1010E06EE903A8368547913F8AA
S315000007300C5013F80E30967803EB052304FA83F376
S3150000074007EE903AF8EEE66A07EE106AD378F8EE0E
S31500000750E77A06EE103AB8EE477A76EE846AB8EE95
S31500000760C66A27EE057A67EEA67A37EE067A77EE40
S31500000770E47A67EE677A87EEA57AFCEEC77A17EE1B
S31500000780903AC3F3072501F80C5001F80E3043796F
S315000007900CF102045FFA84FC6345C1D8002070BDE9
S315000007A000207047000020440000FA480000804303
S315000007B000803B4B10B50446836D9A6818685368F1
S315000007C09847236E13B1204600F0A0FB002020605E
S315000007D010BD00BF70B584B001AC84E80E00164BA6
S315000007E0026805469A421CBF002380F85030836D8C
S315000007F09A681868166994E80E00B0470646A8B9C4
S315000008000D4B2A689A4211D0652406E0013C01216D
S315000008102846A4B200F058FB5CB195F85030002B86
S31500000820F4D095F85230002B18BF1226304604B08B
S3150000083070BD1426FAE700BF444F4D5A90F8482081
S31500000840012A01D00F48704784B05FFA82FC8DF808
S315000008500CC04FF0020C02460291C16D80F848C0F0
S315000008608B695B6A93F8241002F8441F93F82530CD
S3150000087001928DF80D3004AB13E90E0004B0FFF7BA
S31500000880A9BF00BF0200030003460121B72240F2C0
S31500000890011C84B080F8471003F8442F011D019312
S315000008A0ADF80CC0029104AB13E90E0004B0FFF7DB
S315000008B091BF00BF70B5144B0546006898421CBF37
S315000008C0002385F85030AB6D9868C4681868A04757
S315000008D00646A8B90C4B2A689A4211D0652406E050
S315000008E0013C01212846A4B200F0EEFA54B195F875
S315000008F05030002BF4D095F85230002B18BF12263A
S31500000900304670BD1426FBE7444F4D5A01469323EB
S31500000910022221F8043FFFF7CDBF00BF022210B428
S315000009209324C16D80F84820896904714C6A011DC1
S3150000093094F800C080F805C05DF8044BFFF7BABF15
S315000009402DE9F04F04468946002202254968D9F868
S315000009500030D9F80C002166D9F808108DB0616610
S315000009600190E065D9E9040184F84620C4E91A013A
S3150000097084F8485084F847209A68C4E91593D3E967
S315000009800001126890478346002848D1226E22B1A2
S31500000990204600F0A1FA002840D1E26D9369D2E921
S315000009A00410186110891962988112780093022A3E
S315000009B039D03031009B4FF0930A5962231DCDE99F
S315000009C0023999461FE026466FF06B0340F2011884
S315000009D006F8443F09970896ADF82880204695E822
S315000009E00E00FFF7F7FEC8B9C821204600F06CFAE2
S315000009F00BF1010B90B99DF91430002B15DABBF5FC
S31500000A007A7F00F0A181022249462046A4F804A07C
S31500000A10FFF750FF05AF08AD0028D4D083465846EF
S31500000A200DB0BDE8F08F6031C4E7BBF57A7FDDF825
S31500000A300C9000F08981029B0896099340F20123ED
S31500000A40ADF8283084F8440095E80E002046FFF7FC
S31500000A50C1FE83460028E2D1A388009A5BBA928938
S31500000A609BB29A4202D04FF0060BD8E706238DF8C8
S31500000A7029302023009A84F84430531C09932046D9
S31500000A8095E80E00FFF7A6FE83460028C7D1262369
S31500000A90009A84F84430536A126993F82C3009920C
S31500000AA08DF82930204695E80E00FFF793FE834621
S31500000AB00028B4D1B723E26D0890D2F818A0029AA4
S31500000AC0ADF81C8005960692C5E90100E86084F839
S31500000AD04430204697E80E00FFF77CFE8346002848
S31500000AE09DD1DAF82080294640460AF10102FFF737
S31500000AF009FE8346002892D198F80430237198F8AD
S31500000B0005204AB1012311F801CB581C234483F870
S31500000B1004C0C3B29A42F6D2204602990132FFF7C8
S31500000B20C9FE834600287FF47AAFDAF820301A7BB4
S31500000B3022715A7B1969012342B111F801CB581C65
S31500000B40234483F804C0C3B29A42F6D220460299DF
S31500000B500132FFF7AFFE834600287FF460AFDAF874
S31500000B6020301A7D22715A7D9969012342B111F80C
S31500000B7001CB581C234483F804C0C3B29A42F6D270
S31500000B80204602990132FFF795FE834600287FF43E
S31500000B9046AFDAF820301A7F22715A7F196A01238C
S31500000BA042B111F801CB581C234483F804C0C3B2E8
S31500000BB09A42F6D2204602990132FFF77BFE83461F
S31500000BC000287FF42CAF226E0AB184F851009323DB
S31500000BD02371DAF8203002221B78204602996371CD
S31500000BE0FFF768FE834600287FF419AF236E002BBB
S31500000BF000F0AD8094F85130002BFBD0002384F830
S31500000C0051304FF00108DAF82030204693F82420BE
S31500000C10059684F84420029A8DF81C80069293F873
S31500000C2025308DF81D3097E80E00FFF7D3FD83467B
S31500000C3000287FF4F4AEA38808905BBAAAF80A30BD
S31500000C40E36DC5E901009E69E388776A5BBAE860EF
S31500000C5029463846AAF8083006EB0802FFF752FD87
S31500000C60834600287FF4DBAE3B7923717A7952B153
S31500000C7015F8011B08F10103A04488F804105FFA77
S31500000C8083F84245F4D2204602990132FFF712FE5C
S31500000C90834600287FF4C3AE736A1A7B22715A7B9F
S31500000CA0196901233AB111F8015B581C23441D71DF
S31500000CB0C3B29A42F7D2204602990132FFF7FAFDF3
S31500000CC0834600287FF4ABAE736A1A7D22715A7D83
S31500000CD0996901233AB111F8015B581C23441D712F
S31500000CE0C3B29A42F7D2204602990132FFF7E2FDDB
S31500000CF0834600287FF493AE736A1A7F22715A7F67
S31500000D00196A01233AB111F8015B581C23441D717D
S31500000D10C3B29A42F7D2204602990132FFF7CAFDC2
S31500000D20834600287FF47BAE019B4946DB6820465C
S31500000D301B689847834600287FF471AE5846154ACB
S31500000D4022600DB0BDE8F08F4FF0140B67E64FF050
S31500000D5094080BE03221204600F0B6F800287FF414
S31500000D605DAE9DF91330002BBFF64BAF0DF11303AB
S31500000D70069340F201130596ADF81C30204697E81D
S31500000D800E0084F84480FFF725FD0028E2D0834654
S31500000D9045E600BF444F4D5A03464FF0020C012171
S31500000DA0942200B540F2011E85B080F848C080F854
S31500000DB0461003F8442F00F145010193ADF80CE00D
S31500000DC0029104AB13E90E0005B05DF804EBFFF7E2
S31500000DD001BD00BF30B503680279D96D586E83B086
S31500000DE08C69009062B98DF804202A481D688542F6
S31500000DF018D0012183F8501083F8522003B030BD7B
S31500000E0005228DF80420234918688842F1D193F809
S31500000E10462093F847209B6E002BEFD068469847F4
S31500000E2003B030BD93F84620C2B1087893F8452048
S31500000E300C2827D841F22201C140CD0722D5616A8C
S31500000E4002F01F02497F4908013991421CD0022253
S31500000E508DF80420002283F84620DCE793F847202B
S31500000E60002AD8D01A79510608D4120644BF0322A4
S31500000E708DF80420002283F84720CCE704228DF861
S31500000E800420F7E71006E2D401228DF8042083F847
S31500000E904820DFE7444F4D5A03681A681AB9012201
S31500000EA083F851207047012200B5586ED96E83B081
S31500000EB000908DF8042083F8482009B168468847D9
S31500000EC003B05DF804FB00BF08B508464FF47A711D
S31500000ED000F008FF002008BD70B5046E0546D4E991
S31500000EE0011320681B68984768B9A16803462A461B
S31500000EF02068CD680449A84728B9A36820685B68BC
S31500000F00BDE87040184770BD990E000008B5036E25
S31500000F109A68186813699847002008BD836810B559
S31500000F209A6804461868536898470020206010BDE8
S31500000F300620704770B5154B0546006898421CBFE1
S31500000F4000232B74AB689868C4681868A0470646E7
S31500000F5090B90E4B2A689A420ED040F2E93406E068
S31500000F60013C01212846A4B200F082F964B12B7C31
S31500000F70002BF5D06B7C0BB9304670BD6B7C022B19
S31500000F8018BF1226304670BD1426F5E79CB51A56D2
S31500000F900146F523012201F8173FFFF7CBBF00BF3B
S31500000FA070B5154B0546006898421CBF00232B748C
S31500000FB0AB68986884681868A047064690B90E4BD7
S31500000FC02A689A420ED040F2E93406E0013C01213B
S31500000FD02846A4B200F04CF964B12B7C002BF5D066
S31500000FE06B7C0BB9304670BD6B7C012B18BF12268B
S31500000FF0304670BD1426F5E79CB51A564FF0010C25
S31500001000052280F816C0FFF7CBBF00BF2DE9F043DD
S31500001010D1E901350446002241600869996885B026
S315000010206275E560E0620D68A360A275D3E9000110
S31500001030A84710B105B0BDE8F08301252646302348
S31500001040657506F8173F20462A463146FFF772FFB8
S315000010500028EFD10DF10409022249462046A57564
S31500001060FFF79EFF0028E5D14FF0A70E4FF4817CD5
S31500001070616804F112030F7891F80180204DCDE9E3
S3150000108001632268A368ADF80CC0A4F817E0AA4271
S315000010909A6818BF20741569186899E80E00A84761
S315000010A00028C7D1164B22689A420ED040F2E93585
S315000010B006E0013D01212046ADB200F0D9F8EDB1C0
S315000010C0237C002BF5D0637CB3B9A625A37C47EA25
S315000010D0080723F00F033B43314603222046A3743F
S315000010E06376A4F81750FFF725FF0028A2D1044B1A
S315000010F0236005B0BDE8F08312209BE7142099E732
S315000011009CB51A56FF2310B501F1FF3ECC1C0820F2
S315000011101EF801CF83EA0C034FFA83FC5B00BCF197
S31500001120000F00F1FF30DBB2B8BF83F01D0310F0F3
S31500001130FF00F1D17445EAD10C799C4254D10B7869
S315000011404C781B0203F47C53234307EE903A8B78CA
S31500001150C9781B0203F47C530B4307EE103ADFED0C
S31500001160245ADFED246AB8EEC77AF8EEE77A9FEDE7
S31500001170226A67EEA57A27EE267AC7EE066A87EE1A
S31500001180867A9FED1E5ABDEEC76A76EEC57A16EED2
S31500001190101AFDEEE76A044609B206EE101A61F36C
S315000011A00F0416EE901A09B2B8EEC66A06EE901A49
S315000011B037EE467AF8EEE66A27EE257A77EEE67A95
S315000011C0034667EEA57ABDEEC77AFDEEE77A61F3D0
S315000011D00F0317EE101A61F31F4417EE901A61F30E
S315000011E01F435460136010BD4FF4403010BD00BF64
S315000011F00000C8420000254300FC7F460000204254
S3150000120000B502790368003A18BF0122D868597DF3
S3150000121083B0920000908DF8042071B100215975B9
S31500001220FAB9124A1968914213D001219DF8042097
S3150000123019745A7403B05DF804FB01F0FF00997D40
S315000012400029EED09875002AEBD001228DF80420F3
S31500001250E7E7DB6A002BEDD06846984703B05DF8F8
S3150000126004FB02228DF80420DBE700BF9CB51A566A
S3150000127008B508464FF47A7100F034FD002008BD29
S31500001280034610B44C68074AC3E900148C68002072
S315000012909C60D1E90314DA60C3E906415DF8044BAA
S315000012A0704700BF21332C3203460022596810468E
S315000012B04A60DA60704700BF00F05AB800F070B8B4
S315000012C084B00DF1040C8CE80E009CE80E0004B00E
S315000012D000F07EB870B5046803796268E169023B84
S315000012E082B0012B9268009116D8002561698DF8AD
S315000012F00450C1B1936810685E6822692B46B047F6
S31500001300C4E9045530B10322A3698DF804200BB15A
S315000013106846984702B070BD93681068DB689847C6
S3150000132003238DF80430A369002BF1D102B070BD00
S3150000133043685A68824217D070B59D688368A96869
S3150000134004460E691A7B99682868B04758B9A96897
S3150000135062684E690346B4462868044954602246CA
S31500001360BDE87040604770BD00207047D512000090
S3150000137043682DE9F04104460D4616469F68FFF77F
S31500001380D7FF58B9C4E904000346B8683246446832
S315000013902946A4463868BDE8F0416047BDE8F081BB
S315000013A043682DE9F04104460D4616469F68FFF74F
S315000013B0BFFF58B9C4E904000346B86832468468DA
S315000013C02946A4463868BDE8F0416047BDE8F0818B
S315000013D030B585B004AC04E90E00436804469D6848
S315000013E0FFF7A6FF80B9A968029A9DF80D30286814
S315000013F08D68C4E90432AC4601239DF80C2001999E
S3150000140005B0BDE83040604705B030BD0346002258
S315000014104FF0F00C196910468A7081F80BC093F8EA
S315000014202AC0D96983F830201A6283F82E2083F8FF
S315000014302CC05962704700BF0346002059601A72DB
S31500001440704700BF84460020CCE90E32CCF8341039
S31500001450704700BF0346044ADB6800209B1AB3FAB4
S3150000146083F35B090B70704743324953034610B44C
S315000014700020F0241A69D96990709070D47293F89C
S315000014802A2083F83000186283F82E0083F82C2077
S315000014905962D860EFF31081012282F310881B682D
S315000014A0074A93F800C04FF00043546823FA0CF340
S315000014B023435360536881F310885DF8044B7047EB
S315000014C00040084090F808C08161BCF1010F80F827
S315000014D02E30C26134D090F82AC00023012180F852
S315000014E02D1080F82F3080F8313080F833300262CA
S315000014F090F82D2080F82BC080F82C3043620AB17A
S3150000150080F83110B42203699A7090F830201AB925
S3150000151051220020DA727047002280F83020012222
S31500001520BCF1010F0CBF90F8281090F829100CF1AF
S31500001530FF3CD97080F82BC080F82C200020704723
S315000015400021436880F82AC05B0043F0010380F85D
S31500001550283080F82910C0E790F808C08161BCF1F6
S31500001560010F80F82E30C26134D090F82AC00023D3
S3150000157080F82D3080F82F3080F8313080F8333005
S31500001580026290F82D2080F82BC080F82C30436240
S3150000159012B1012380F83130B42203699A7090F8B1
S315000015A030201AB951220020DA727047002280F8E2
S315000015B030200122BCF1010F0CBF90F8281090F8E2
S315000015C029100CF1FF3CD97080F82BC080F82C2034
S315000015D0002070470021436880F82AC05B0080F82D
S315000015E0283080F82910C2E703460022F0B50878B3
S315000015F08C6800F58000C3E9001400F58C500002E9
S315000016001861087B1872D1E907405C63C3E90E20B4
S31500001610EFF310864FF0010E8EF310884FF0004561
S315000016200C784848E540446824EA0504446040686C
S3150000163086F31088F026FA2723241868456A186965
S3150000164095F800C08270C672AE784FEA8C0C06F030
S315000016500306067087716E784CF0200C5FFA8CFCDE
S31500001660467080F807C06E790672EE78867495F833
S3150000167004C0354D4FEACC0C4CEA0E0C5FFA8CFCDC
S3150000168080F809C08472427391F80DC091F90F0079
S315000016902E4E4FEA0C1C2E4C2F185FFA8CFC87F846
S315000016A000C300F1C00C46F8203054F82C7062F3E9
S315000016B0104744F82C7054F82C70BFF35F8F4FEA34
S315000016C0501C4FEA8C0C00F01F000CF1604C0EFA17
S315000016D000F00CF5614CCCF88001CCF80000487B9A
S315000016E091F9101000010D44C0B285F8000301F114
S315000016F0C00046F8213054F8205062F3104544F8F3
S31500001700205054F82000BFF35F8F01F01F004909F5
S31500001710890001F160410EFA00F001F56141C1F85E
S31500001720800108600B4983F82D20104683F82E208F
S31500001730C3E9082283F82F209A61DA6183F8302002
S31500001740D960F0BD0040084000E100E01804002028
S31500001750006000404332495330B5836B83B0044682
S315000017600A466D468BB193E8030085E80300E16BFA
S315000017701A711846626B19609047A36B1BB195E806
S31500001780030083E8030003B030BD2B46EFE700BF3C
S3150000179010B4EFF30383103B4E4A5BB2C03352F8EA
S315000017A0231021F4803142F8231052F82330EFF34E
S315000017B00383494A103B5BB252F823301A69117B06
S315000017C0C1F3000CC9072AD493F82C1093F82A0009
S315000017D0884212D093F82D0008B102294DD093F813
S315000017E028000131D07093F82B2083F82C10013A91
S315000017F083F82B205DF8044B7047196A002933D013
S3150000180093F82D0000283ED1586A9C690139245C62
S315000018100130C3E90810D4705DF8044B704793F8A3
S315000018202D10B9B193F83110A1B9507999695A6A56
S31500001830885493F82E00D3E9081201390132C3E91E
S31500001840081200283BD0522001221969C87283F879
S315000018503020CFE70024012054211C6283F82F009A
S315000018605DF8044BD172704793F82E1041B15220A7
S315000018700121D07283F83010BCE75223D372B9E746
S315000018805423D372B6E793F8310040B1012983F8A7
S3150000189031C019D0FF2482F80AC0D470BCE7507951
S315000018A099695A6A8854D3E90821013A0131012A13
S315000018B0C3E9082107D0FF241A69D470ACE7542283
S315000018C01B69DA7296E71A692023FF249372D47093
S315000018D0A2E700BF006000401804002010B5EFF337
S315000018E00383304A103B5BB252F823000269D37A75
S315000018F023F00803D37290F82F30002B3ED190F8D6
S315000019002A1003F0FF0C90F82C3099421BD1036A81
S3150000191053B990F82D1090F83040C1F10301C9B2C7
S31500001920CCB3D372FFF718FFEFF30383103B1E4AC5
S315000019305BB2C03352F8231021F4803142F82310F1
S3150000194052F8233010BDFBB190F82D4004F0FF0192
S3150000195034B1022B12BF614690F8291041F0010103
S315000019604FF0000C82F80BC0D17090F82B20013399
S3150000197080F82C30531E80F82B30D5E7F023012158
S31500001980D372FFF7E9FECFE701290CBF90F82810C4
S3150000199090F82910E4E7F023D372937803F0CF038D
S315000019A09370BFE718040020006000402DE9F84F4F
S315000019B00388DBB180464FF000094FF0010BDFF8DA
S315000019C084A000241E4D4FEAC907D8F8043035F824
S315000019D0022BD919898891420AD00134032CF4D1FB
S315000019E0B8F8003009F101094B45EAD8BDE8F88F8F
S315000019F0DB590BFA04F603F0B853B3F1807FF6B265
S31500001A009AF8BB340ED03342E7D0012000F036FA04
S31500001A109AF8BB34012023EA06038AF8BB3400F0A7
S31500001A20FDF9DAE73342D8D1012000F027FA9AF817
S31500001A30BB34012033438AF8BB3400F0EFF9CCE71E
S31500001A408C56000000E00140F8B50446FFF7AEFFF3
S31500001A50EFF31082012383F31088234F3B681BB9F1
S31500001A602249CB704023CB703B6801333B6082F345
S31500001A70108823882BB361681D4C01EBC30E06E06A
S31500001A801B01083113448E4544F8230019D0086819
S31500001A908A88C5034FEA1223D2B2F1D502EB031CA2
S31500001AA054F82C601B01083120F4803526F480366A
S31500001AB013448E4544F82C6044F82C5044F8230017
S31500001AC0E5D1EFF31082012383F310883B6813B14D
S31500001AD03B68013B3B603B681BB980200349CB70E8
S31500001AE0C87082F31088F8BD14040020000D084069
S31500001AF00008084008B5034B03600846FFF7A4FF3B
S31500001B00002008BD54524F50064B074993F8260053
S31500001B101A6A51F82030C2F302620449D3400B60BE
S31500001B20704700BF00E0014044010020A0050020EE
S31500001B30704700BFF8B54AF2035001234149424AB3
S31500001B40A1F8FE03A2F80431B2F804319BB2002BCF
S31500001B50FAD101204FF400454FF0090C3B4CDFF859
S31500001B6004E13B4EC4F804E0DFF8FCE03549C4F874
S31500001B700CE0384FA2F80001374AB060306062616D
S31500001B80276091F82620A5602561086A54F822206E
S31500001B90324EC0F30260C240326081F8133481F8DD
S31500001BA0A2C091F880341BB991F88134990743D0CB
S31500001BB0244D95F88034A3B30022224B83F8812468
S31500001BC083F8802400231F4981F8323091F83C3095
S31500001BD01A07FBD543F2021000231A4A088581F83A
S31500001BE02A3092F83C309B06FBD503200523164984
S31500001BF081F81C011A490120116282F8263092F8F8
S31500001C002630116A54F82330C1F30261CB403360A9
S31500001C104FF4254382F8300082F85200A2F8FE33D2
S31500001C20F8BD0121C82085F8801400F05BF895F80E
S31500001C308034012BFBD1BFE74FF47A70FFF778FFB2
S31500001C40C0E700BF00E0014000C0014044010020A1
S31500001C5000700040002D310100C2EB0BA0050020F2
S31500001C602112012000127A0000366E0138B50025D7
S31500001C70164C0121C82084F8285000F033F884F867
S31500001C80245094F82430002BFBD194F824300F4ACA
S31500001C9043F0020384F8243092F82430C3F3400161
S31500001CA09B07F9D4094882F8221090F8223003F0F5
S31500001CB0FF04002BF9D1012000F0E0F8044B0120CD
S31500001CC083F8BB44BDE8384000F0A8B800300840AF
S31500001CD000E0014000BEFEE7A0F101000028FBD1B4
S31500001CE0704700BF4FF47A7310B400FB01F1114C3A
S31500001CF0114A2468B2FBF4F2A1FB03043CB9B0FB21
S31500001D00F2F0800860B15DF8044BFFF7E5BF920082
S31500001D10B1FBF2F1A1FB03132BB908460028F2D15F
S31500001D205DF8044B70474FF0FF3C5DF8044B60468E
S31500001D30FFF7D2BFA005002000CA9A3B70B5002469
S31500001D400B4B0C4EB3F82021B3F84051ADB2154001
S31500001D5025FA04F3DB0704D556F82430E0B203B1C4
S31500001D6098470134102CF3D1014BA3F8305170BDC4
S31500001D7000600040D403002030B5032085B000F099
S31500001D807DF86FF0FF054FF0FF31204C002322460F
S31500001D904FF0010E1E488564CDE90111039104F14F
S31500001DA0C00532F8020F590960B104A800EB8101A1
S31500001DB051F80C0C03F01F0C0EFA0CFC20EA0C0078
S31500001DC041F80C0C954203F10103EAD10199114B3C
S31500001DD00F4A03201167C3F8801202995167C3F8AE
S31500001DE0841203999167C3F8881200F017F800234C
S31500001DF0094834F8022F03F1C00101330AB140F853
S31500001E002120A542F5D105B030BD00BFF254000037
S31500001E100080004000E100E000600040EFF3108128
S31500001E20012383F31088124B33F8102092B22AB1A3
S31500001E3033F81020013A92B223F8102033F810300C
S31500001E409BB293B90B4A10B4B2F8FE330A4C9BB25C
S31500001E5034F8100043F4254323EA0003A2F8FE33C6
S31500001E6081F310885DF8044B704781F31088704742
S31500001E709805002000E001409456000030B4EFF3CE
S31500001E801081012383F310880E4A32F810309BB27A
S31500001E906BB90D4C0D4DB4F8FE3335F810C09BB23E
S31500001EA043EA0C0343F425439BB2A4F8FE3332F80D
S31500001EB0103001339BB222F8103081F3108830BC09
S31500001EC0704700BF9805002000E0014094560000CE
S31500001ED000BE704708B500F003F8FEF77DFBFEE78D
S31500001EE04FF4700270B5254B254CC3F888200020AE
S31500001EF09C60FEF765FBFFF71DFE0120FEF760FB09
S31500001F002368A3F5806383F30A881E481E4A0021CE
S31500001F10121A01F047F81D481D4A1E49121A01F00F
S31500001F204FF81D4D1D4B5B1B002B07DD00249E103B
S31500001F3055F8043B01349847A642F9DCFFF7E4FD67
S31500001F40FFF794FE0320FFF799FF00234FF6FF707B
S31500001F50134903F108020133092B21F81200F8D1C5
S31500001F600320FFF75BFF0220FEF72AFBFFF704FFC3
S31500001F70BDE87040002000F015B800BF00ED00E09D
S31500001F800000000060010020DC06002000000020A8
S31500001F9044010020745A00003C010020400100204A
S31500001FA0000D0840704700BF1B8882B05BBA9BB229
S31500001FB09342019005D98B4207D39FED190A02B0CF
S31500001FC070479FED180A02B0704707EE900A9A1AFA
S31500001FD0F8EEE76ADFED145A07EE902AC91AF8EE12
S31500001FE0E77A07EE101A66EEA56AB8EEC77A66EECD
S31500001FF0A77A9FED0C6A87EE870AB4EEC60AF1EE61
S3150000200010FA09DDDFED067AB4EE670AF1EE10FA92
S3150000201037FE800A02B07047B0EE460A02B070473B
S31500002020A5D468530000C84200007A4438B500259C
S315000020300123DFF834C0242200210563456385634C
S31500002040C563C0F840C080F84C30044600F0AAFFD3
S3150000205000204FF07E53034A6562A562E062626427
S31500002060A36438BD27A0093C0000C843FFFFFFFF5B
S31500002070DFEDC27A2DE9F04F2DED048BB4EEE72AA1
S31500002080C46A9DB00392621C1CBF0134C462F1EEA7
S3150000209010FA0646B0EE409AF0EE618AB0EE428A39
S315000020A00291019340F30681DFEDB57AB4EEE72A9B
S315000020B0F1EE10FA40F1FE80B5EEC08AF1EE10FAAC
S315000020C0019B83ED0F8A40F30681DFEDAE7AB4EE15
S315000020D0678AF1EE10FA37FE888A012C00F000813B
S315000020E0F5EEC08AF1EE10FA00F30181DFEDC78A42
S315000020F00DF1240ADFEDA49AB1463746D3460025F2
S31500002100DDF8088058F8040B00F0A4FE41EC100B33
S3150000211000F0B6FF51EC100B00F0F4FEF7EC016A8C
S3150000212007EE100AB4EEE67AF1EE10FA4BF8040B5D
S31500002130C0F2E680042D47F8040C00F01981013541
S31500002140EDB2092DDED19DED116ADDED0D6AB7EE1A
S31500002150007AC6EE267AF4EEC77AF1EE10FA40F36C
S31500002160D2819FED8A7A9FED8A0A67EE877A30EEF2
S31500002170670A00F05BFCB7EE007AC7EE007A30EE35
S31500002180676A30EE270ADFED836AC6EE007ADFED76
S31500002190829A67EEA67A79EEE79AF4EEC79AF1EE9E
S315000021A010FA40F3AA81F1EE047AF4EE679AF1EEA2
S315000021B010FA77FEA99ADFED796A012312AA06F1D1
S315000021C02400F9EC017ABAEC017A77EEC77AF4EEDC
S315000021D0667AF1EE10FA98BF00238145E2EC017AA7
S315000021E0EFD1002B40F0D8819FED6D8A9FED6D7A7F
S315000021F0F7EE006A28EE077AD6ED115A96ED126AC6
S315000022009FED695A78EE657A76EEC66A67EE857A4C
S3150000221066EE856A77EEA57A76EE866AC6ED117A5F
S31500002220C6ED126AF46A9FED5F6A019BC3ED127AEE
S3150000223067EE867AC3ED106AC3ED117A96F84C30D4
S31500002240002B00F0E980002386ED0C7A86ED0D7AEE
S31500002250DFED697A86F84C303369019A642CC6ED55
S31500002260107AC2ED137A82ED0E9A536340F23F81E3
S31500002270029B9FED4E7AD3ED047AF4EEC77AF1EE27
S3150000228010FA00F1A1829FED4A7AF4EEC77AF1EED8
S3150000229010FA00F39982DFED477AB4EEE79AF1EE91
S315000022A010FACCBF6FF0650000201DB0BDEC048BAA
S315000022B0BDE8F08F89EE206ADFED3F6A9FED3F7A39
S315000022C086EE268A38EE478ADFED3D7A38EE018AB9
S315000022D038EE678AF0E6012C9FED4C8A7FF400AF5A
S315000022E0D6ED117AD6ED126A9FED367A9BE7DFEDD1
S315000022F0257AF4EE678AF1EE10FA77FEA88AF7E6F9
S315000023000023314A02E00133052B2BD052F8041B7F
S31500002310A142F8D3DAB242B32C489B001A1F0344F9
S3150000232093ED005A1318D3ED004A274B35EE645A45
S315000023309B58C91A07EE901AE31AF8EE677A06EE6A
S31500002340103AF8EE465A85EE276A66EE257A77EE5B
S31500002350A47A37EE667A27EE277A37EE267A07EDE5
S31500002360017AECE6F0EE697AF3E7F7EE007AF0E749
S31500002370C6ED098A86ED0A8A0525C3E600008CC3E8
S31500002380002474490000C8420EA21138F99E014289
S31500002390718833429F33E53F4A014340CCBC8CAB46
S315000023A027A0093CD7A3F03F9AE4C23D00007A4338
S315000023B0F902155086387642A306533B8D479B4358
S315000023C0EC51B840395E813CBC560000A85600006E
S315000023D0B6A0453CA14C343CCDB1A93493F9283A7A
S315000023E0FF440E4700409C45E0A54741060DFABC58
S315000023F0B9B7513C6F12833A0000C8437FE57B3D75
S31500002400FF02D72C93F928BA2C923A42000000001A
S31500002410BD37863500008043D6ED0D6A96ED0C5A21
S3150000242037EE666A5FED163A1FED164A77EE455AA5
S3150000243026EE046A65EEA35A36EE266A75EE855ACE
S315000024405FED157A75EEC66AD6ED0E4A76EEE77A38
S3150000245077EEA47AF5EEC07AF1EE10FAC6ED0C5AD4
S3150000246086ED0D6A40F382801FED255AF4EE457A1B
S31500002470F1EE10FA75FE277A1FED285A96ED0F4AEF
S3150000248036EE855A35EE045AB5EEC05AF1EE10FA1C
S31500002490C6ED0E7AD6ED104A4FF0000336DD1FED7D
S315000024A02C5AF4EEC56AF1EE10FAF36361DD5FEDC6
S315000024B0296A5FED357A1FED305A67EE277A1FEDF0
S315000024C0376A77EE857A76EEA46AF4EE467AF1EE0E
S315000024D010FAF4EEC56A76FE277AF1EE10FA0FDDF1
S315000024E0F4EEE76AF1EE10FA77FEA67AB4E601207A
S315000024F01DB0BDEC048BBDE8F08FF0EE479A5AE6AE
S31500002500F0EE457AA8E61FED480A32E61FED494A85
S31500002510B4EEC45AF1EE10FA00F333811FED4C5AB3
S31500002520F4EEC56AF1EE10FA86ED0F4ABFDC1FED38
S315000025304C5AF4EEC57AF1EE10FAB8DC5FED537A38
S31500002540B4EEE76AF1EE10FA21DDC5EE866A5FEDBC
S31500002550567AF7EE005A74EEE77A76EEE56A1FEDE4
S31500002560596A66EEA76A66EE866AA2E75FED597A51
S3150000257082E71FED5D5AF4EEC57AF1EE10FA96DCAD
S315000025805FED607AF4EEE76AF1EE10FAD6DD5FED04
S31500002590627A66EEA76A8CE7169B12A804930A9BDA
S315000025A007A91B9300F016FAD6ED097AF4EEE87A3D
S315000025B0F1EE10FA00F1D4805FED6C7A96ED0A7AAE
S315000025C0B4EEC87AF1EE10FACDED057A00F1B780D7
S315000025D05FED726ADDED057AF4EE667AF1EE10FAD9
S315000025E0B7EE046A48BFF0EE667A9DED047A67EEB0
S315000025F0867A77EE677AF5EEC07AF1EE10FAD8BFF2
S315000026005FED7E7A08A904A8CDED047ACDED066AC1
S3150000261000F0C2F91FED826A9DED077ADDED087ABA
S31500002620B4EEC67ADDED065AF1EE10FAF4EEC67A8D
S3150000263037FE067AF1EE10FAF5EEC05A77FE867A84
S31500002640F1EE10FA67EEA97A6BDDF6EE006A27EE78
S31500002650267A77EE278ADDED037A039BF8EEE77A92
S315000026601B0644BF1FED957A77EEC77A17EE900AE0
S3150000267000F0F0FB9FED680B41EC110B00F044FD00
S3150000268051EC100B00F03EFC08EE100ADFED647A08
S3150000269028EE288AB4EEE78AF1EE10FA3ADDDFED8D
S315000026A0617AB7EE007A68EE277AF4EEC77AF1EE31
S315000026B010FA00F18C8077EEC77AF7EE046A67EEBF
S315000026C0A67A77EE877A17EE900A00F0C3FBDFED65
S315000026D0568A022441EC100B00F0D2FC51EC100B90
S315000026E000F010FC06EE900A504B66EEA86A03EB6B
S315000026F0840393ED007AF7EE007A76EE876AF4EEBD
S31500002700E76AF1EE10FA7FF771AD9FED467A28EE93
S31500002710077A71E59FED467AB0EE678AF7EE006AB2
S315000027206AE5DDED056AF5EEC06AF1EE10FA8CDCBD
S3150000273077EE877AB6EE087A67EE878A8BE712A875
S3150000274006A98DED127A8DED138A00F007F9DDEDFD
S31500002750066AF5EEC06AF1EE10FA3FF73BAF37E7CF
S3150000276012A805A9CDED127ACDED138A00F0D8F89E
S31500002770DDED057AF5EEC07AF1EE10FA3FF71EAF01
S315000027801AE79FED2C4AF4EEC46AF1EE10FA86EDD4
S315000027900F5A3FF78CAE9FED284AF4EEC47AF1EE5D
S315000027A010FA3FF784AEDFED257AF4EEE76AF1EE34
S315000027B010FA7FF7C3AEDFED227AB4EEE75AF1EEF8
S315000027C010FA7FF7BBAEE2E66FF065006DE5DFED70
S315000027D01D6AF4EEE67AF1EE10FA0FD477EEE67A99
S315000027E0DFED196A07EEA67A17EE100A00F032FB43
S315000027F0DFED168A012441EC100B6DE7DFED146A5C
S3150000280007EEA67A17EE100A00F024FBDFED118A18
S31500002810002441EC100B5FE7000000E07EAEF03FC5
S3150000282027A0093CD7A3F03FC343EB3F9C560000CB
S31500002830395E813CB9B7513CFF02D72C93F928BACF
S31500002840C4359DB89A99993EC1CB2940305F0C405A
S31500002850BEBEE34177AB02402DE9F04F9A460E46E5
S315000028601F469346126883B0B1F80880B1F80A9003
S315000028700090951C03F1180401922B4670784A4685
S315000028804146FFF791FBA7EC010ABC4205F10205A0
S31500002890F3D1019A0AF1340702F112052B4670783A
S315000028A04A464146FFF780FBA4EC010AA74205F120
S315000028B00205F3D1019ADFED176A1188B6F80320F5
S315000028C049BA8BB207EE903A52BA92B207EE102A84
S315000028D0F8EEE77AB479B8EEC77A67EEA67A01EE33
S315000028E0104ADFED0D0A9FED0D0A53469BED022AB5
S315000028F0DBED011AC7EE200A37EE800ABBEEEF1AAF
S315000029003269009892790AF1080103B0BDE8F04FE8
S31500002910FFF7AEBB4617BF3A0AD72344A38B7E41C7
S3150000292030B50C460B4A87B00323009203A9022256
S3150000293000F004F9084D03A90846032200F0A2F8A6
S3150000294001230322214603A8009500F0F7F807B0FB
S3150000295030BD00BFE0560000D056000030B50C4632
S315000029600B4A87B00323009203A9022200F0E6F87F
S31500002970084D03A90846032200F0CAF801230322E2
S31500002980214603A8009500F0D9F807B030BD00BF76
S31500002990145700000457000030B50C460B4A89B0A6
S315000029A00623009202A9012200F0C8F8084D02A9E8
S315000029B00846062200F066F801230622214602A8F0
S315000029C0009500F0BBF809B030BD00BF54570000B9
S315000029D0385700000A2330B50C46114A93B00092CE
S315000029E008A91A4600F0AAF808A908460A2200F023
S315000029F049F80C490523009108A803A90A2200F00A
S31500002A009DF8094D03A90846052200F03BF801236D
S31500002A100522214603A8009500F090F813B030BDBA
S31500002A20785800009C57000084570000DFED117AAB
S31500002A30B4EEE70AF1EE10FA19DCDFED0F7AB4EE28
S31500002A40E70AF1EE10FA02D59FED0C0A704708B5B9
S31500002A5010EE100A00F0FEF941EC100B00F0C0FA7F
S31500002A6051EC100B00F04EFA00EE100A08BD9FED77
S31500002A70040A70470000A4420000A4C222CB4F04FF
S31500002A80EDB19D7AFAB370B504462DED048B0D4673
S31500002A909FED1D8AB7EE009ADFED1C8A00EB8206D9
S31500002AA00AE0F4EEE87AF1EE10FA15D5FFEE007AB8
S31500002AB0A642E5EC017A0CD0F4EC017AF4EEC87A81
S31500002AC0F1EE10FAEDDDF7EE007AA642E5EC017ABA
S31500002AD0F2D1BDEC048B70BD17EE900A00F0BAF986
S31500002AE041EC100B00F07CFA51EC100B00F00AFAE6
S31500002AF007EE900A89EE277A77EEC76A37EE877A6D
S31500002B00C6EE877AD4E770470000A4420000A4C24C
S31500002B1082B19FED097A00EB8202F0EC017AF5EEC4
S31500002B20C07AF1EE10FAD8BFF0EE477A8242E1ECB5
S31500002B30017AF2D1704700BF0000000070B5049C16
S31500002B401BB3054616464FF0040E501E1EFB03121D
S31500002B501EFB065EC0B200F1010C4FEA8C00B4EC1D
S31500002B60017AA1EC017A76B1A4462B46F3EC016A10
S31500002B70FCEC017A67EEA67A37EE277A734501ED0B
S31500002B80017AF3D104449142E9D170BD81F000414C
S31500002B9002E000BF83F0004330B54FEA41044FEA3C
S31500002BA0430594EA050F08BF90EA020F1FBF54EAD7
S31500002BB0000C55EA020C7FEA645C7FEA655C00F073
S31500002BC0E2804FEA5454D4EB5555B8BF6D420CDD44
S31500002BD02C4480EA020281EA030382EA000083EAC7
S31500002BE0010180EA020281EA0303362D88BF30BD67
S31500002BF011F0004F4FEA01314FF4801C4CEA1131BD
S31500002C0002D0404261EB410113F0004F4FEA03331B
S31500002C104CEA133302D0524263EB430394EA050FA6
S31500002C2000F0A780A4F10104D5F1200E0DDB02FA15
S31500002C300EFC22FA05F2801841F1000103FA0EF2A9
S31500002C40801843FA05F359410EE0A5F120050EF16F
S31500002C50200E012A03FA0EFC28BF4CF0020C43FAA0
S31500002C6005F3C01851EBE37101F0004507D54FF0AD
S31500002C70000EDCF1000C7EEB00006EEB0101B1F5FD
S31500002C80801F1BD3B1F5001F0CD349085FEA300043
S31500002C904FEA3C0C04F101044FEA445212F5800F4E
S31500002CA080F09A80BCF1004F08BF5FEA500C50F1EB
S31500002CB0000041EB045141EA050130BD5FEA4C0CCE
S31500002CC0404141EB0101013C28BFB1F5801FE9D22B
S31500002CD091F0000F04BF01460020B1FA81F308BF4E
S31500002CE02033A3F10B03B3F120020CDA0C3208DD1A
S31500002CF002F1140CC2F10C0201FA0CF021FA02F1F5
S31500002D000CE002F11402D8BFC2F1200C01FA02F164
S31500002D1020FA0CFCDCBF41EA0C019040E41AA2BF89
S31500002D2001EB0451294330BD6FEA04041F3C1CDA51
S31500002D300C340EDC04F11404C4F1200220FA04F071
S31500002D4001FA02F340EA030021FA04F345EA03011B
S31500002D5030BDC4F10C04C4F1200220FA02F001FADD
S31500002D6004F340EA0300294630BD21FA04F029465F
S31500002D7030BD94F0000F83F4801306BF81F48011F8
S31500002D800134013D4EE77FEA645C18BF7FEA655C6B
S31500002D9029D094EA050F08BF90EA020F05D054EA3D
S31500002DA0000C04BF1946104630BD91EA030F1EBF42
S31500002DB00021002030BD5FEA545C05D14000494146
S31500002DC028BF41F0004130BD14F580043CBF01F539
S31500002DD0801130BD01F0004545F0FE4141F470011F
S31500002DE04FF0000030BD7FEA645C1ABF19461046FA
S31500002DF07FEA655C1CBF0B46024650EA013406BFFB
S31500002E0052EA033591EA030F41F4002130BD00BFB9
S31500002E1090F0000F04BF0021704730B54FF4806476
S31500002E2004F132044FF000054FF0000150E700BFF7
S31500002E3090F0000F04BF0021704730B54FF4806456
S31500002E4004F1320410F0004548BF40424FF0000143
S31500002E503EE700BF42004FEAE2014FEA31014FEA86
S31500002E6002701FBF12F07F4393F07F4F81F06051D5
S31500002E70704732F07F4208BF704793F07F4F04BF20
S31500002E8041F40021704730B54FF4607401F00045FD
S31500002E9021F000411CE700BF50EA010208BF70475D
S31500002EA030B54FF000050AE050EA010208BF70474E
S31500002EB030B511F0004502D5404261EB41014FF4B7
S31500002EC0806404F132045FEA915C3FF4D8AE4FF0BF
S31500002ED003025FEADC0C18BF03325FEADC0C18BFA2
S31500002EE0033202EBDC02C2F1200300FA03FC20FAF3
S31500002EF002F001FA03FE40EA0E0021FA02F1144440
S31500002F00BDE600BF4FEA4102B2F1E04324BFB3F58C
S31500002F10001CDCF1FE5C0DD901F0004C4FEAC0024A
S31500002F204CEA5070B2F1004F40EB830008BF20F02E
S31500002F300100704711F0804F21D113F13872BCBFE8
S31500002F4001F00040704741F480114FEA5252C2F13D
S31500002F501802C2F1200C10FA0CF320FA02F018BF86
S31500002F6040F001004FEAC1234FEAD32303FA0CFCD9
S31500002F7040EA0C0023FA02F34FEA4303CCE77FEA68
S31500002F80625307D150EA01331EBF4FF0FE4040F4B2
S31500002F904000704701F0004040F0FE4040F4000061
S31500002FA0704700BF02440346934200D1704703F8BE
S31500002FB0011BF9E7014B1868704700BFEC000020C1
S31500002FC00A44431E914200D1704710B511F8014BD7
S31500002FD0914203F8014FF9D110BDFFFFFFFFFFFF3C
S31500002FE008B52DED048BB0EE408AF0EE608A00F055
S31500002FF01BF9B0EE409AF0EE609AB0EE480AF0EE99
S31500003000680A00F0F9F878B119A3D3E9002351EC66
S31500003010180B01F0A1FF70B917A3D3E9002351ECF7
S31500003020180B01F07BFF98B9B0EE490AF0EE690A79
S31500003030BDEC048B08BD9FED0A9BFFF7BBFF222367
S31500003040B0EE490AF0EE690A0360BDEC048B08BDD8
S31500003050FFF7B0FF22239FED049B0360E4E700BF68
S31500003060000000000000F07F0000000000000000EB
S31500003070EF39FAFE422E864051302DD5104987C0D1
S3150000308038B555EC104B2DED028B00F09DFA22461B
S315000030902B4620462946B0EE408AF0EE608A01F0C3
S315000030A065FF98B9002200232046294601F040FF1B
S315000030B060B1002200232046294601F025FF60B1B9
S315000030C0FFF778FF22239FED0C8B0360B0EE480AD2
S315000030D0F0EE680ABDEC028B38BDFFF76BFF2122CC
S315000030E003460748BDEC028B1A60BDE8384000F085
S315000030F093B800BFAFF30080000000000000F0FFAF
S3150000310064500000FFFFFFFFF8B555EC114B2DEDA5
S31500003110028B57EC106B00F0F3FA22462B46204642
S315000031202946B0EE408AF0EE608A01F01FFF78B9BA
S31500003130002200233046394601F0E6FEF0B10022B7
S3150000314000232046294601F0DFFE40B19FED288B83
S31500003150B0EE480AF0EE680ABDEC028BF8BD45EC0D
S31500003160104B00F049F80028F2D000220023204638
S31500003170294601F0D3FE0028EAD02EE0B0EE480A38
S31500003180F0EE680A00F038F8A0B10022002351ECF6
S31500003190180B01F0B9FE0028DAD047EC106B00F0EE
S315000031A02BF80028D4D045EC104B00F025F8002869
S315000031B0CED012E047EC106B00F01EF80028E4D0E9
S315000031C045EC104B00F018F80028DED053EC182B15
S315000031D051EC180B01F0CAFE20B9FFF7EBFE2223D3
S315000031E00360B5E7FFF7E6FE21230360B0E700BF03
S315000031F0000000000000F03F82B005488DED000B96
S31500003200019B23F000431844C00F02B0704700BF73
S3150000321000001080FFFFFFFF9FED010B704700BF0E
S31500003220000000000000F87F2DE9F04755EC104B38
S3150000323025F00042D84986B0EE0F8A420DD9D7490B
S315000032408A4271D9C5F313032246234340F05381C2
S31500003250002E66D09FEDB80B63E0D14B9A4200F288
S315000032602F81D04B9A4240F2148122462B462046AB
S31500003270294601F0E1FB06460F46B1A3D3E9002338
S3150000328001F0DAFBB0A3D3E90023FFF783FC324653
S315000032903B4601F0D1FBAEA3D3E90023FFF77CFC4C
S315000032A032463B4601F0C8FBABA3D3E90023FFF748
S315000032B071FC32463B4601F0BFFBA9A3D3E90023CC
S315000032C0FFF76AFC32463B4601F0B6FB02460B4668
S315000032D020462946FFF75EFCCDE90201DDE90289B9
S315000032E02046294642464B4601F0A6FB06460F46B7
S315000032F000224FF0804340464946FFF74BFC02460A
S315000033000B463046394601F0C1FC22462B46FFF7F4
S3150000331041FC02460B460020A349FFF73BFC41EC6B
S31500003320100B06B0BDE8F0878FA3D3E90023204633
S31500003330294601F011FE0746002840F0E6802046A7
S3150000334029468BA3D3E9002301F0E8FD002840F0CD
S315000033503581964B2046294603EBC60686A3D3E95C
S31500003360002301F069FBD6E90023FFF715FC01F005
S3150000337013FE8246FFF75CFD06460F4680A3D3E99F
S31500003380002301F059FB02460B4620462946FFF76B
S3150000339001FC80468946304639467BA3D3E90023A3
S315000033A001F04AFBCDE90001DDE90023404649462C
S315000033B0FFF7F0FB02460B4604460D4601F03CFBC8
S315000033C006460F465EA3D3E9002301F035FB5EA354
S315000033D0D3E90023FFF7DEFB32463B4601F02CFB28
S315000033E05BA3D3E90023FFF7D7FB32463B4601F048
S315000033F023FB59A3D3E90023FFF7CCFB32463B4618
S3150000340001F01AFB56A3D3E90023FFF7C5FB3246AA
S315000034103B4601F011FB02460B4620462946FFF7C4
S31500003420B9FB06460F462046294632463B46CDE9BD
S31500003430026701F001FBCDE90401BAF1000F3FF488
S315000034404DAF32463B4600204FF08041FFF7A2FBCE
S3150000345002460B46DDE9040101F018FC02460B4664
S31500003460DDE90001FFF796FB42464B46FFF792FB6C
S3150000347002460B4600204C49FFF78CFB6FF47F7227
S31500003480924548DB01EB0A5141EC100B06B0BDE852
S31500003490F0873FA3D3E9002320462946FFF77CFBAC
S315000034A00022414B01F058FD00283FF4DEAE002219
S315000034B03D4B20462946FFF76FFB41EC100B30E7EA
S315000034C03B4B9A423FF645AF3A4B20462946F4001D
S315000034D003EBC60386F0010AD3E90023FFF75AFB84
S315000034E0354B804689462344AAEB060A93ED007BBA
S315000034F08DED007B58E72B4620462946FFF74CFB0F
S3150000350041EC100B06B0BDE8F087002006B0BDE820
S31500003510F04700F0C1BF0AF57A7A00224FF0B8737F
S3150000352001EB0A5101F088FA41EC100B06B0BDE838
S31500003530F08700BFAFF3008000000000000000002D
S31500003540D0A4BE726937663EF16BD2C541BDBB3EA3
S315000035502CDE25AF6A56113F93BDBE166CC1663F81
S315000035603E5555555555C53FEF39FAFE422E864014
S3150000357051302DD5104987C0FE822B654715F73F80
S315000035800000E0FE422EE63F763C7935EF39EA3D13
S315000035909C7500883CE4377E412E8640FFFFEF7F16
S315000035A0422ED63FFFFFEF3D0000F03F505A00008D
S315000035B0B1A2F03F405A0000305A0000384606B02B
S315000035C0BDE8F04700F060BF2DE9F84355EC104B1D
S315000035D0B5F5801F2B462DED028B1FDA25F0004234
S315000035E0224360D0002D6ADB0022414B204629464B
S315000035F001F022FA0D463F4A04462B466FF035018C
S3150000360093420FDD22462B4620462946FFF7C4FA91
S3150000361041EC100BBDEC028BBDE8F883354A002166
S315000036209342EFDC1815C3F31306A0F2FF300844EB
S31500003630C70F00EBD070FFF7FBFB40F2FF3380466D
S315000036408946DB1B46EA035523A3D3E9002345EC51
S31500003650184B01F0F1F9B0EE480AF0EE680A04469C
S315000036600D4601F011F81EA3D3E9002351EC100B0F
S3150000367001F0E2F922462B46FFF78EFA04460D4684
S315000036804046494618A3D3E9002301F0D5F902467E
S315000036900B4620462946FFF77FFABDEC028B41EC2C
S315000036A0100BBDE8F883002200230020124901F028
S315000036B0EDFABDEC028B41EC100BBDE8F883224617
S315000036C020462946FFF766FA0022002301F0DEFABB
S315000036D041EC100B9EE700BF362BF111F3FE593D6E
S315000036E00EE526157BCBDB3F00609F501344D33F8E
S315000036F000005043FFFFEF7F000050C3FFFFFFFFB6
S315000037002DE9F04F55EC114B25F0004393B053EAE9
S31500003710040057EC106B12D1B31987F400228449C8
S315000037205241984291411DD222462B463046394697
S31500003730FFF732FA41EC100B13B0BDE8F08F7D486D
S3150000374027F0004AB9463146824510D97A4A4A449A
S315000037500A43E9D1231985F40021754849419A4263
S315000037608841E1D39FED700B13B0BDE8F08FA846FA
S315000037702246504601D1002ED6D1DFF8B8C16345A6
S31500003780E4D801D1002AE1D1B9F1000F20DB002AEB
S315000037905DD1DFF8A0C163450BD09346674A9342DB
S315000037A040F0C784B8F1000FC0F20C8547EC106BEF
S315000037B0C2E7614B53440B43D4D0614B9A4540F268
S315000037C0CA84B8F1000FC0F24F8545EC104BB3E741
S315000037D0DFF874C163454BD9002A40F0E483554AAB
S315000037E09342E6D04FF0020B04910290009347EC0F
S315000037F0106B00F087FD0499009B029800295ED0AB
S315000038004FEAD972013A52EA0B0100F08A800BF1B5
S31500003810FF3B5BEA020B00F0A1839FED437B8DED3E
S31500003820047BB3F1844F40F29180464A9342444B65
S3150000383040F222849A4500F2CF84B8F1000FC0F21C
S31500003840CF84002013B0BDE8F04F00F01DBE4FF04E
S31500003850000B04910290009347EC106B00F052FDB0
S315000038600499009B029851B34FEAD972013ACEE708
S31500003870DFF8CCC063450FD94FEA235CACF2FF3CBE
S31500003880BCF1140F40F37E84CCF1340C22FA0CFE0A
S315000038900EFA0CFC94453CD0002A40F08783B8F120
S315000038A0804F00F0858404910290009347EC106BE2
S315000038B000F028FD0499009B029891BB8B4629F0E5
S315000038C040421E498A4202D0BAF1000F98D1B8F19F
S315000038D0000F07DA0020194953EC102B01F0D6F936
S315000038E041EC100BB9F1000FBFF626AF124B534453
S315000038F053EA0B0340F09C8453EC102B10461946F8
S31500003900FFF748F902460B4601F0C0F941EC100BEF
S3150000391012E7002A00F048840EF0010ECEF1020BE9
S3150000392097E732463B46E9E7000000000000F03F1B
S315000039300000F0FF0000F07F000010C00000F03F24
S31500003940FFFFEF3F0000F043FFFF3F43D84B00224D
S3150000395009EA030353B9D74B51EC100B01F06CF88D
S315000039606FF0340241EC100B10EE900A0315C0F311
S315000039701300D14EA3F2FF3306439A18CF4B984259
S315000039800B9240F32C83CE4B984240F32F840132A6
S31500003990A6F5801600270B929FEDAF7B8DED087B79
S315000039A09FEDAF7B8DED067B9FEDAB7B8DED107BA9
S315000039B053EC102B9246B34631465046DDE90623BA
S315000039C0FFF7E8F880468946504631467610DDE92D
S315000039D00623CDE90CABFFF7DFF802460B460020C5
S315000039E0B54946F0005601F051F98C4683464946E2
S315000039F0634640465A46CDE90EBC01F01DF80A461C
S31500003A00014606F500230020CDE90012CDE9021299
S31500003A100021064602460091D919DDE900AB0F46A2
S31500003A200B465046594601F007F802460B464046FB
S31500003A304946FFF7AFF88046894630463946DDE904
S31500003A400623FFF7A7F802460B46DDE90C01FFF750
S31500003A50A1F852465B4600F0EFFF02460B46404691
S31500003A604946FFF797F8DDE90E2300F0E5FFDDE9AB
S31500003A700267CDE9060132463B463046394600F03C
S31500003A80DBFF06460F4678A3D3E9002300F0D4FFF8
S31500003A9077A3D3E90023FFF77FF832463B4600F0D1
S31500003AA0CBFF75A3D3E90023FFF776F832463B46F2
S31500003AB000F0C2FF72A3D3E90023FFF76DF8324688
S31500003AC03B4600F0B9FF70A3D3E90023FFF764F883
S31500003AD032463B4600F0B0FF6DA3D3E90023FFF763
S31500003AE05BF88046894632463B463046394600F00A
S31500003AF0A3FF02460B464046494600F09DFF52464C
S31500003B0006460F465B46DDE90201FFF745F8DDE9AB
S31500003B10062300F091FF32463B460026FFF73CF8AD
S31500003B205246804689465B465046594600F084FF19
S31500003B3002460B46CDE90C230022624BFFF72CF818
S31500003B4042464B46FFF728F80F46324650463B465C
S31500003B50594600F071FF002282468B46594B30468B
S31500003B603946FFF717F8DDE90C23FFF713F802468D
S31500003B700B4640464946FFF70DF8DDE9022300F003
S31500003B805BFF8046894632463B460026DDE9060154
S31500003B9000F052FF02460B4640464946FEF7FCFF40
S31500003BA0804689465046424659464B46FEF7F4FF44
S31500003BB00F46304638A3D3E9002300F03DFF5246B6
S31500003BC05B4682468B4630463946FEF7E3FF0246A1
S31500003BD00B4640464946FEF7DDFF31A3D3E90023F5
S31500003BE000F02AFF02460B463046394616461F4667
S31500003BF02DA3D3E9002300F01FFF02460B463046F3
S31500003C003946FEF7C9FFDDE91023FEF7C5FF064674
S31500003C100F460B98FFF70CF93246804689463B461D
S31500003C2050465946CDE902ABFEF7B6FFDDE908235B
S31500003C30FEF7B2FF42464B46FEF7AEFF0020424675
S31500003C404B4682468B46FEF7A5FFDDE90823FEF7C5
S31500003C50A1FFDDE9022337E00000000000000000BC
S31500003C60000000000000F03FEF4E454A287ECA3FA4
S31500003C7065DBC9934A86CD3F01411DA96074D13FDA
S31500003C804D268F515555D53FFFAB6FDBB66DDB3FEC
S31500003C90033333333333E33F000000E009C7EE3F1D
S31500003CA0FD033ADC09C7EE3FF5015B14E02F3EBE8B
S31500003CB00000F07F000040430000F03F8E980300B4
S31500003CC079B60B0000000840FEF764FF02460B467B
S31500003CD030463946FEF75EFF0023CDE900450093E6
S31500003CE0DDE90089CDE902014246204629464B46D8
S31500003CF0FEF750FF52465B4600F09EFE06460F4614
S31500003D0022462B46DDE9020100F096FE02460B46EE
S31500003D1030463946FEF740FF04460D4642464B46BE
S31500003D2050465946CDE9024500F086FE06460F4646
S31500003D302046294632463B46FEF72EFFC84B044630
S31500003D400D469942884640F30E81C64B0B44034309
S31500003D5040F05C82AAA3D3E90023DDE90201FEF765
S31500003D601BFF02460B462046294614461D46324690
S31500003D703B46FEF70FFF02460B462046294601F05A
S31500003D80EBF8002840F042824FF400734344B64CEF
S31500003D90B8F1000F4FF00000C3F30A52C3F3130A41
S31500003DA0A2F2FF324AF4801A44FA02F4C2F1140273
S31500003DB004EA03014AFA02FA024630460B46B8BF45
S31500003DC0CAF1000A3946FEF7E5FE02460B460646EC
S31500003DD00F464FEA0A5BDDE90201FEF7DDFE0D46FE
S31500003DE00024294688A3D3E90023204600F024FEB8
S31500003DF03246804689463B4620462946FEF7CAFE9D
S31500003E0002460B46DDE90201FEF7C4FE80A3D3E9B4
S31500003E10002300F011FE02460B46204629461446B2
S31500003E201D467DA3D3E9002300F006FE02460B469D
S31500003E3020462946FEF7B0FE06460F464046324665
S31500003E4049463B46FEF7A8FE424604460D464B460B
S31500003E50FEF7A0FE02460B4630463946FEF79AFEAE
S31500003E602246804689462B462046294600F0E4FD38
S31500003E7006460F466AA3D3E9002300F0DDFD6AA3D8
S31500003E80D3E90023FEF786FE32463B4600F0D4FD1A
S31500003E9067A3D3E90023FEF77FFE32463B4600F0D8
S31500003EA0CBFD65A3D3E90023FEF774FE32463B46FD
S31500003EB000F0C2FD62A3D3E90023FEF76DFE324691
S31500003EC03B4600F0B9FD02460B4620462946FEF762
S31500003ED061FE06460F462046324629463B4600F01E
S31500003EE0ABFD02460B463046394616461F460022B3
S31500003EF04FF08043FEF74EFE02460B4630463946EB
S31500003F0000F0C4FE424606460F464B46204629466A
S31500003F1000F092FD42464B46FEF73EFE02460B4639
S31500003F2030463946FEF736FE22462B46FEF732FE6F
S31500003F3002460B4600204D49FEF72CFE0B4659441F
S31500003F400246B1F5801FC0F26B811046DDE90423FD
S31500003F5000F072FD41EC100BFFF7EEBB9FED3A7BD4
S31500003F608DED047B5DE421F00043DFF808C1634575
S31500003F7040F2FF803E4B0B4403430AD132463B4698
S31500003F80FEF708FEDDE9022300F0DCFF00283FF41F
S31500003F90FBAE00220023DDE9040100F0BFFF00387C
S31500003FA018BF01204EE44FF0020B52E447EC106BB1
S31500003FB0009100F0A7F9009900297FF4B2AC29F02E
S31500003FC040492A4B994503D0BAF1000F7FF4A9ACBA
S31500003FD0B8F1000FC0F259814FF0000B86E49FED57
S31500003FE01C7B00278DED087B9FED1B7B8DED067BF3
S31500003FF09DED087B8DED107BDAE400BFAFF300800A
S31500004000FE822B654715973C00000000432EE63FD5
S31500004010EF39FAFE422EE63F396CA80C615C20BEF1
S31500004020D0A4BE726937663EF16BD2C541BDBB3EB8
S315000040302CDE25AF6A56113F93BDBE166CC1663F96
S315000040403E5555555555C53F000000000000F0BFD0
S315000040500000000000000000000000000000F03F2B
S31500004060FFFF8F40000070BF0000F0FF0000F03F30
S3150000407000346F3FFFCB90409A45C0F0E7809E4BDF
S3150000408000229A4500F2F4809B4B51EC100BFEF790
S3150000409081FD06460F4688A3D3E9002300F0CCFC39
S315000040A082468B463046394685A3D3E9002300F085
S315000040B0C3FC0022914BCDE900013046394600F0A1
S315000040C0BBFC02460B4680A1D1E90001FEF762FD6A
S315000040D032463B4600F0B0FC02460B4600208849BB
S315000040E0FEF758FD8046894632463B4630463946FD
S315000040F000F0A2FC02460B464046494600F09CFCF6
S3150000410073A3D3E9002300F097FC02460B46DDE9D2
S315000041100001FEF73FFD06460F4650465946324619
S315000041203B46FEF739FD002052465B4682468B46EB
S31500004130CAE5B8F1804F3BD0714A90457FF454AB45
S31500004140B9F1000FFFF650AB47EC106B13B0BDE8AA
S31500004150F04F00F0A9B9B8F1000F9FED5F0BBFF665
S31500004160EBAA05F1004300EE104A00EE903AFFF785
S31500004170E3BA634A934200F29480DDE90023934652
S3150000418092462DE6002A7FF411AFCCF1140C43FAC7
S315000041900CFE0EFA0CFC9C457FF4FFAA0EF0010EF5
S315000041A0CEF1020BFFF7FABAB8F1804F7FF41AABE3
S315000041B032463B463046394600F03EFC41EC100B99
S315000041C0FFF7BABA00204C4932463B4600F05EFD86
S315000041D041EC100BFFF7B0BAB8F1000F7FF731AB27
S315000041E0002013B0BDE8F04F00F056B99FED3C7BC0
S315000041F04FF480278DED087B9FED3B7B8DED107B8B
S315000042009FED3B7B8DED067BFFF7D2BB00220023A3
S31500004210DDE9040100F082FE003818BF0120E0E766
S31500004220504643EC102B00F077F851EC100B8DE65E
S31500004230BBF1010F7FF480AA10EE901A10EE102A3F
S3150000424001F1004343EC102BFFF776BA002200235E
S31500004250DDE9040100F062FE003818BF0120B8F164
S31500004260000FBFF6EFAABCE79FED1B0BFFF764BA82
S315000042700023DDE9040100F051FE003818BF0120DB
S31500004280B8F1000FADDCFFF7DDBA53EC102B0020C0
S31500004290194900F0FBFC4FF0000B41EC100BFFF747
S315000042A025BB1B154FF48012A3F2FE3342FA03F32B
S315000042B06CE500BFAFF30080000000604715F73FD4
S315000042C044DF5DF80BAE543E555555555555D53F13
S315000042D0FE822B654715F73F000000000000000036
S315000042E00000004003B8E23F06D0CF43EBFD4C3E52
S315000042F0000000000000F83F0000F03F0000D03F43
S315000043000000E03F51EC100B024621F0004343EC65
S31500004310102B7047FFFFFFFF70B555EC104BC5F330
S315000043200A522B46064672BB25F00043234329D08A
S315000043303B4B20462946002200F07EFB394B0446C3
S315000043400D469E4252DBC1F30A520B46363A4CF2F8
S3150000435050318E4223DC164440F2FE7296421EDC39
S31500004360002E34DC16F1350F38DB6FF31E5336366C
S315000043700022204643EA06552B4B294600F05CFBFB
S3150000438041EC100B70BD40F2FF718A42DFD122462C
S3150000439020462946FEF700FC41EC100B70BD002DAF
S315000043A017A1D1E9000107DB15A3D3E9002300F02B
S315000043B043FB41EC100B70BD13A1D1E9000110A322
S315000043C0D3E9002300F038FB41EC100BF3E76FF361
S315000043D01E5343EA065545EC104B70BD002D0CA14B
S315000043E0D1E9000102DA0CA1D1E9000108A3D3E961
S315000043F0002300F021FB41EC100B70BDAFF30080F1
S315000044009C7500883CE4377E9C7500883CE437FE4A
S3150000441059F3F8C21F6EA50159F3F8C21F6EA581A4
S3150000442000005043B03CFFFF0000903C10B52DED5E
S31500004430028BB0EE408AF0EE608A0446FEF7BAFDC3
S315000044400460B0EE480AF0EE680ABDEC028B10BDBF
S3150000445000B553EC102B83B090B1104603F1004128
S31500004460CDE9000110461946DDE9002300F0E4FA23
S3150000447041EC100B222003B05DF804EBFFF7D6BF2A
S3150000448010461946ECE700BF9FED010BFFF7E0BFB2
S3150000449000000000000000109FED010BFFF7D8BFE1
S315000044A0000000000000007073482DE9F84F55EC3D
S315000044B0104BA84322462B4600F09E80002D214635
S315000044C05EDD2C1500F0C880C3F31303E207A4F2E7
S315000044D0FF3743F4801303D4CA0F490002EB4303AA
S315000044E05B0000264A004FF0160C03EBD173B6466C
S315000044F07F104FF400110EEB0100D40F52009842CA
S3150000450003DC00EB010E1B1A0E44BCF1010C04EB9C
S3150000451043034FEA5101EED1654620244FF0004196
S3150000452013E0904208D89E4506D1002800EB010C06
S315000045303DDB0023121A0D44D00F013C4FEA510116
S3150000454000EB43034FEA420235D09E450CEB0100D7
S31500004550E7DA002800EB010C07DB9042F046A3EBFC
S315000045600E030BD9013BC646E4E7BCF1000FF4DBB2
S3150000457090420EF10108A3EB0E03F3D8C646D9E725
S3150000458025F00040204335D0002D5AD1CA0A153BEC
S315000045904905002AFAD0D6021C46084613465CD5C1
S315000045A020254FF0FF32E840A41A03438CE7BCF104
S315000045B0000FDDDABDE7134312D0DFF8C4A0DFF841
S315000045C0C4B0DAE90001DBE90023DAE90089FEF785
S315000045D0E1FA02460B464046494600F0A9FCB8B946
S315000045E06C08264944EAC67201EB660101EB0753E3
S315000045F043EC102BBDE8F88F2046294600F01CFA44
S3150000460022462B46FEF7C8FA41EC100BBDE8F88FA0
S31500004610B5F1FF3FDAE90001DBE9002328D0FEF718
S31500004620BBFA02460B46DAE900894046494600F0E5
S3150000463075FCF8B1AB1C05F1020408BF013664082D
S31500004640CFE720462946FEF7A5FA02460B4600F0BC
S315000046501DFB41EC100BCDE7104600215B000A461E
S315000046600131DD02FAD5C1F1200500FA01F19AE720
S315000046700136B6E70135B3E70000F07F0000E03F02
S31500004680685A0000605A000051EC100BB1F5801F0B
S315000046902DE9F04F0C4687B07CDA21F00043024644
S315000046A0034300F01A810029C0F261810022D64B33
S315000046B000F0C2F9D54B0C466FF035029C426DDC1A
S315000046C02515D34BC4F31304A5F2FF352344154433
S315000046D0D04A03F480135A4005EB1355CD4B42EAFA
S315000046E004010022FEF756FAA31C82468B46C3F34A
S315000046F013030022022B5ADC002300F005FC0028DD
S3150000470040F0F68050465946ABA3D3E9002300F0AB
S3150000471093F902460B460020BF49FEF73BFA0646D0
S315000047200F4652465B465046594600F085F902460A
S315000047300B463046394600F07FF906460F46002DF7
S3150000474000F00A812846FEF773FB804689469CA343
S31500004750D3E9002300F070F904460D464046494669
S3150000476099A3D3E9002300F067F902460B463046C9
S315000047703946FEF70FFA52465B46FEF70BFA02463B
S315000047800B4620462946FEF705FA41EC100B07B00A
S31500004790BDE8F08F9D4B00229C4291DD02460B4600
S315000047A0FEF7FAF941EC100B07B0BDE8F08F4FF0B9
S315000047B08043DFF87082FEF7EFF902460B4650465B
S315000047C05946A04400F062FA06460F462846FEF710
S315000047D02FFB32463B46CDE9040130463946CDE94A
S315000047E0026700F029F902460B46CDE9002300F0E6
S315000047F023F906460F4676A3D3E9002300F01CF9F9
S3150000480075A3D3E90023FEF7C7F932463B4600F00D
S3150000481013F973A3D3E90023FEF7BEF932463B46EC
S3150000482000F00AF970A3D3E90023FEF7B5F9DDE934
S31500004830002300F001F96EA3D3E90023CDE90001BE
S315000048403046394600F0F8F86BA3D3E90023FEF7AB
S31500004850A3F932463B4600F0EFF869A3D3E90023FB
S31500004860FEF79AF932463B4600F0E6F80B4602465A
S31500004870DDE90001FEF790F9684B06460F461B1B63
S3150000488043EA0803002B52DD0022634B504659468B
S3150000489000F0D2F852465B4600F0CEF880468946D4
S315000048A03046394642464B46FEF776F9DDE90223A5
S315000048B000F0C2F806460F46002D62D102460B46AE
S315000048C040464946FEF766F902460B4650465946AB
S315000048D0FEF760F941EC100B66E70022002300208A
S315000048E04F4900F0D3F941EC100B07B0BDE8F08F4B
S315000048F0002D00F099802846FEF79AFA06460F46E4
S315000049002FA3D3E9002300F097F804460D4630465E
S3150000491039462DA3D3E9002300F08EF802460B4654
S3150000492020462946FEF738F941EC100B3CE70246D3
S315000049300B4650465946FEF72DF9DDE9022300F0F5
S315000049407BF806460F463DB1DDE904891CA3D3E991
S31500004950002340464946FDE632463B465046594608
S31500004960FEF718F941EC100B07B0BDE8F08F0B46C7
S31500004970FEF710F90022002300F088F941EC100B35
S3150000498012E70FA3D3E90023DDE9040100F054F890
S3150000499004460D460CA3D3E90023DDE9040100F02B
S315000049A04BF832463B46FEF7F7F802460B464046C2
S315000049B04946DEE6AFF30080555555555555D53F6A
S315000049C00000E0FE422EE63F763C7935EF39EA3DBF
S315000049D044523EDF12F1C23FDE03CB966446C73F28
S315000049E0599322942449D23F935555555555E53F41
S315000049F09FC678D0099AC33FAF788E1DC571CC3F4C
S31500004A0004FA97999999D93F00005043FFFFEF7F29
S31500004A10645F09000000F03F0000E03F51B8060067
S31500004A20000050C386EBF9FF9FED010BBCE600BF0B
S31500004A30000000000000000070B54FF0FF0C4CF4C1
S31500004A40E06C1CEA11541DBF1CEA135594EA0C0FC6
S31500004A5095EA0C0F00F0DEF82C4481EA030621EA01
S31500004A604C5123EA4C5350EA013518BF52EA03353C
S31500004A7041F4801143F4801338D0A0FB02CE4FF0EE
S31500004A800005E1FB02E506F00042E0FB03E54FF01E
S31500004A900006E1FB03569CF0000F18BF4EF0010E16
S31500004AA0A4F1FF04B6F5007F64F5407404D25FEA12
S31500004AB04E0E6D4146EB060642EAC62141EA5551C5
S31500004AC04FEAC52040EA5E504FEACE2EB4F1FD0C07
S31500004AD088BFBCF5E06F1ED8BEF1004F08BF5FEA85
S31500004AE0500E50F1000041EB045170BD06F0004637
S31500004AF046EA010140EA020081EA0301B4EB5C04E4
S31500004B00C2BFD4EB0C0541EA045170BD41F48011DB
S31500004B104FF0000E013C00F3AB8014F1360FDEBF00
S31500004B20002001F0004170BDC4F10004203C35DADC
S31500004B300C341BDC04F11404C4F1200500FA05F35F
S31500004B4020FA04F001FA05F240EA020001F0004200
S31500004B5021F0004110EBD37021FA04F642EB060176
S31500004B605EEA430E08BF20EAD37070BDC4F10C04A0
S31500004B70C4F1200500FA04F320FA05F001FA04F264
S31500004B8040EA020001F0004110EBD37041F1000150
S31500004B905EEA430E08BF20EAD37070BDC4F120055B
S31500004BA000FA05F24EEA020E20FA04F301FA05F2C3
S31500004BB043EA020321FA04F001F0004121FA04F26B
S31500004BC020EA020000EBD3705EEA430E08BF20EA3B
S31500004BD0D37070BD94F0000F0FD101F00046400075
S31500004BE041EB010111F4801F08BF013CF7D041EAF7
S31500004BF0060195F0000F18BF704703F000465200FB
S31500004C0043EB030313F4801F08BF013DF7D043EACB
S31500004C100603704794EA0C0F0CEA135518BF95EA81
S31500004C200C0F0CD050EA410618BF52EA4306D1D108
S31500004C3081EA030101F000414FF0000070BD50EA27
S31500004C40410606BF1046194652EA430619D094EAB1
S31500004C500C0F02D150EA013613D195EA0C0F05D19B
S31500004C6052EA03361CBF104619460AD181EA0301EF
S31500004C7001F0004141F0FE4141F470014FF00000A7
S31500004C8070BD41F0FE4141F4780170BD70B54FF042
S31500004C90FF0C4CF4E06C1CEA11541DBF1CEA1355C2
S31500004CA094EA0C0F95EA0C0F00F0A7F8A4EB0504A4
S31500004CB081EA030E52EA03354FEA013100F088809B
S31500004CC04FEA03334FF0805545EA131343EA126364
S31500004CD04FEA022245EA111545EA10654FEA002619
S31500004CE00EF000419D4208BF964244F1FD0404F5D2
S31500004CF0407402D25B084FEA3202B61A65EB03052E
S31500004D005B084FEA32024FF480104FF4002CB6EBEA
S31500004D10020E75EB030E22BFB61A754640EA0C006A
S31500004D205B084FEA3202B6EB020E75EB030E22BFAA
S31500004D30B61A754640EA5C005B084FEA3202B6EBEB
S31500004D40020E75EB030E22BFB61A754640EA9C00AA
S31500004D505B084FEA3202B6EB020E75EB030E22BF7A
S31500004D60B61A754640EADC0055EA060E18D04FEA38
S31500004D70051545EA16754FEA06164FEAC30343EAD8
S31500004D8052734FEAC2025FEA1C1CC0D111F4801FA5
S31500004D900BD141EA00014FF000004FF0004CB6E79E
S31500004DA011F4801F04BF01430020B4F1FD0C88BF3D
S31500004DB0BCF5E06F3FF6AFAEB5EB030C04BFB6EB48
S31500004DC0020C5FEA500C50F1000041EB045170BD3B
S31500004DD00EF0004E4EEA113114EB5C04C2BFD4EB68
S31500004DE00C0541EA045170BD41F480114FF0000EEC
S31500004DF0013C90E645EA060E8DE60CEA135594EA68
S31500004E000C0F08BF95EA0C0F3FF43BAF94EA0C0F6A
S31500004E100AD150EA01347FF434AF95EA0C0F7FF4DF
S31500004E2025AF104619462CE795EA0C0F06D152EA33
S31500004E3003353FF4FDAE1046194622E750EA410617
S31500004E4018BF52EA43067FF4C5AE50EA41047FF428
S31500004E500DAF52EA43057FF4EBAE12E74FF0FF3C8D
S31500004E6006E000BF4FF0010C02E000BF4FF0010C5E
S31500004E704DF804CD4FEA410C7FEA6C5C4FEA430CD7
S31500004E8018BF7FEA6C5C1BD001B050EA410C0CBF26
S31500004E9052EA430C91EA030F02BF90EA020F002088
S31500004EA0704710F1000F91EA030F58BF994208BFEF
S31500004EB090422CBFD8176FEAE37040F001007047AC
S31500004EC04FEA410C7FEA6C5C02D150EA013C07D103
S31500004ED04FEA430C7FEA6C5CD6D152EA033CD3D04E
S31500004EE05DF8040B704700BF8446104662468C4648
S31500004EF01946634600E000BF01B5FFF7B7FF00287B
S31500004F0048BF10F1000F01BD4DF808EDFFF7F4FFA3
S31500004F100CBF012000205DF808FB00BF4DF808ED2E
S31500004F20FFF7EAFF34BF012000205DF808FB00BF51
S31500004F304DF808EDFFF7E0FF94BF012000205DF873
S31500004F4008FB00BF4DF808EDFFF7CEFF94BF012028
S31500004F5000205DF808FB00BF4DF808EDFFF7C4FF21
S31500004F6034BF012000205DF808FB00BF4FEA410C6A
S31500004F707FEA6C5C02D150EA013C0AD14FEA430C4D
S31500004F807FEA6C5C02D152EA033C02D14FF000008A
S31500004F9070474FF0010070474FEA410212F50012C8
S31500004FA015D211D56FF47873B3EB625212D94FEA6A
S31500004FB0C12343F0004343EA505311F0004F23FA54
S31500004FC002F018BF404270474FF00000704750EAA9
S31500004FD0013005D111F0004008BF6FF00040704766
S31500004FE04FF00000704700BF4275696C7420776906
S31500004FF074682052656E6573617320416476616ED4
S3150000500063656420466C657869626C6520536F66DB
S315000050107477617265205061636B616765207665A0
S315000050207273696F6E20352E312E3000352E312E7B
S315000050303000000000000105F8B500BFF8BC08BC50
S315000050409E467047F8B500BFF8BC08BC9E46704740
S315000050504653505F53554343455353203D3D2065CA
S3150000506072720000000000002E2E2F7372632F68EC
S31500005070616C5F656E7472792E63000066616C7395
S315000050806500FFFF675F7A6D6F64347878785F73C9
S31500005090656E736F72305F717569636B5F67657498
S315000050A074696E675F6961715F326E645F67656EB2
S315000050B05F6461746100FFFF675F7A6D6F643478C7
S315000050C078785F73656E736F72305F717569636B45
S315000050D05F736574757000FF675F6873343030788E
S315000050E05F73656E736F72305F717569636B5F674F
S315000050F0657474696E675F68756D69646974795FF4
S31500005100616E645F74656D70657261747572650059
S31500005110675F6873343030785F73656E736F7230B3
S315000051205F717569636B5F736574757000FFFFFF70
S31500005130675F636F6D6D735F6932635F627573304E
S315000051405F717569636B5F736574757000FFFFFF50
S31500005150E40100205C5100006C56000000000000D5
S31500005160A086010000000000010CDF000100000025
S315000051700000000000000000D51200000000000042
S3150000518084510000011400AC1E01FFFF2402002020
S3150000519098510000F8550000B051000000000000D2
S315000051A00000000018000020A50300000000000019
S315000051B064030020BC51000054560000FFFFFFFFAF
S315000051C00C000020D051000024020020D50D000064
S315000051D00000000000000000320000000100000096
S315000051E000000000000000000000000000000000B9
S315000051F000000000000000008403002004520000AC
S315000052003C560000030C000018520000000000008D
S3150000521000000000C1020000B40300202452000078
S3150000522054560000FFFFFFFF0C000020385200001C
S3150000523084030020011200000000000000000000AE
S315000052405400000001000000000000000000000003
S315000052500000000000000000000000000000000048
S31500005260510000006C5200000000000000800000A9
S315000052700000000000800000010000000040000067
S31500005280020000000080000003000000040000008F
S31500005290040000000040000005000000004000007F
S315000052A0060000000080000007000000104000001B
S315000052B00800000004000000090000000080000053
S315000052C00E000000008000000F000000000C011C12
S315000052D000010000000C011C01010000000C011C73
S315000052E002010000000C011C03010000000C011C5F
S315000052F004010000000C011C05010000000C011C4B
S3150000530006010000000C011C07010000000001005E
S315000053100801000000000100090100000000010072
S315000053200A010000040000000B0100000400000058
S315000053300F01000000000106020200000000010645
S31500005340030200000000010604020000000001063E
S315000053500502000000000100000300000000010635
S315000053600103000004000000030300000400000025
S3150000537004030000000C011105030000000C0111DC
S3150000538006030000000C011107030000000C0111C8
S3150000539008030000000C011109030000000C0111B4
S315000053A00A030000040000000B03000004000000D4
S315000053B00C030000040000000D03000004000000C0
S315000053C000040000000C011701040000000C011786
S315000053D002040000050C00000304000004000000A5
S315000053E004040000000C011705040000000C01175E
S315000053F0060400000000011307040000000001037A
S3150000540008040000104000000904000040000104E8
S315000054100A040000400001040B04000010400000D4
S315000054200E040000040000000F0400000000011339
S315000054300005000000000113010500004000010402
S3150000544005050000400001040605000000040107F0
S315000054500B050000000401070C050000000C011CF0
S3150000546000060000000C011C01060000000C011CD7
S3150000547002060000000C011C0A06000004000000E1
S315000054800B060000040000000C06000000000105E9
S315000054900D060000000001050E060000000C0117B5
S315000054A000070000000C011701070000000C01179F
S315000054B002070000000C011703070000000C01178B
S315000054C004070000000C0117050700000400000097
S315000054D0080700000400000009070000040000009F
S315000054E00A070000040000000C070000040000008A
S315000054F00D0700008101820100000000000000008D
